{
  "_format": "hh-sol-artifact-1",
  "contractName": "Transactions",
  "sourceName": "contracts/Transactions.sol",
  "abi": [
    {
      "anonymous": false,
      "inputs": [
        {
          "indexed": true,
          "internalType": "address",
          "name": "sender",
          "type": "address"
        },
        {
          "indexed": true,
          "internalType": "address",
          "name": "receiver",
          "type": "address"
        },
        {
          "indexed": false,
          "internalType": "uint256",
          "name": "amount",
          "type": "uint256"
        },
        {
          "indexed": false,
          "internalType": "string",
          "name": "message",
          "type": "string"
        },
        {
          "indexed": false,
          "internalType": "uint256",
          "name": "timestamp",
          "type": "uint256"
        },
        {
          "indexed": false,
          "internalType": "string",
          "name": "keyword",
          "type": "string"
        }
      ],
      "name": "Transfer",
      "type": "event"
    },
    {
      "inputs": [
        {
          "internalType": "address payable",
          "name": "_receiver",
          "type": "address"
        },
        {
          "internalType": "uint256",
          "name": "_amount",
          "type": "uint256"
        },
        {
          "internalType": "string",
          "name": "_message",
          "type": "string"
        },
        {
          "internalType": "string",
          "name": "_keyword",
          "type": "string"
        }
      ],
      "name": "publishTransaction",
      "outputs": [],
      "stateMutability": "nonpayable",
      "type": "function"
    }
  ],
  "bytecode": "0x608060405234801561001057600080fd5b5061046a806100206000396000f3fe608060405234801561001057600080fd5b506004361061002b5760003560e01c80637d0ee35714610030575b600080fd5b61004a600480360381019061004591906102ab565b61004c565b005b8373ffffffffffffffffffffffffffffffffffffffff163373ffffffffffffffffffffffffffffffffffffffff167f416cfa4330a4565f45c2fd2dd4826a83a37443aba2ce6f79477c7355afac35fa858542866040516100af94939291906103e1565b60405180910390a350505050565b6000604051905090565b600080fd5b600080fd5b600073ffffffffffffffffffffffffffffffffffffffff82169050919050565b60006100fc826100d1565b9050919050565b61010c816100f1565b811461011757600080fd5b50565b60008135905061012981610103565b92915050565b6000819050919050565b6101428161012f565b811461014d57600080fd5b50565b60008135905061015f81610139565b92915050565b600080fd5b600080fd5b6000601f19601f8301169050919050565b7f4e487b7100000000000000000000000000000000000000000000000000000000600052604160045260246000fd5b6101b88261016f565b810181811067ffffffffffffffff821117156101d7576101d6610180565b5b80604052505050565b60006101ea6100bd565b90506101f682826101af565b919050565b600067ffffffffffffffff82111561021657610215610180565b5b61021f8261016f565b9050602081019050919050565b82818337600083830152505050565b600061024e610249846101fb565b6101e0565b90508281526020810184848401111561026a5761026961016a565b5b61027584828561022c565b509392505050565b600082601f83011261029257610291610165565b5b81356102a284826020860161023b565b91505092915050565b600080600080608085870312156102c5576102c46100c7565b5b60006102d38782880161011a565b94505060206102e487828801610150565b935050604085013567ffffffffffffffff811115610305576103046100cc565b5b6103118782880161027d565b925050606085013567ffffffffffffffff811115610332576103316100cc565b5b61033e8782880161027d565b91505092959194509250565b6103538161012f565b82525050565b600081519050919050565b600082825260208201905092915050565b60005b83811015610393578082015181840152602081019050610378565b838111156103a2576000848401525b50505050565b60006103b382610359565b6103bd8185610364565b93506103cd818560208601610375565b6103d68161016f565b840191505092915050565b60006080820190506103f6600083018761034a565b818103602083015261040881866103a8565b9050610417604083018561034a565b818103606083015261042981846103a8565b90509594505050505056fea2646970667358221220761c7f6fbbdb0f4af536c8d2768b1ec94bb7d70ccfebfd89d6dc5ddd66254c8264736f6c63430008080033",
  "linkReferences": {},
  "deployedLinkReferences": {}
}